:100000000EC01BC01AC019C018C017C016C015C03A
:1000100014C013C028C011C05CC10FC00EC0112491
:100020001FBECFEDCDBF20E0A0E6B0E001C01D9225
:10003000A53BB207E1F757D1DCC2E2CFF89482E0EA
:100040008ABD91E093BF98EC99BD12BE90E199BF33
:100050007894E1E6F0E080831092AA001282118287
:10006000089519BE08951F920F920FB60F92112492
:100070002F933F938F939F93EF93FF9386B3829534
:1000800081708093600020916200309163002F5F47
:100090003F4F30936300209362009091AA00963402
:1000A00018F095E09093610090916100933009F40D
:1000B00046C010F1943099F0953031F4811104C0AC
:1000C0001092630010926200FF91EF919F918F91C7
:1000D0003F912F910F900FBE0F901F90189588237E
:1000E000C1F080916200909163008536910560F3C4
:1000F00085E080936100E8CF923031F78111E4CF41
:10010000809162009091630084369105C8F210924C
:10011000AA00E091AA0081E08E0F8093AA00F0E08F
:100120008091620090916300EF59FF4F838310929A
:1001300063001092620083E080936100C5CF882342
:1001400019F2E091AA0081E08E0F8093AA00F0E0FE
:100150008091620090916300EF59FF4F838310926A
:1001600063001092620084E080936100ADCF82E072
:10017000809361001092AA000895E091B000F09180
:10018000B100818187588C35B8F58091AA00843000
:10019000B9F18091AA00843478F1E091B000F09137
:1001A000B100828183548F3238F540E050E0BA01CB
:1001B00083E090E017C0E091B000F091B1009C01A5
:1001C0002F5F3F4FE20FF31FE081E751E231D8F597
:1001D000440F551F661F771F4160029683349105B7
:1001E00009F440C0E091B000F091B100E80FF91FB0
:1001F000208128502830F8F260E070E0CB010895AB
:10020000E091B000F091B10082818152883108F60E
:10021000E091B000F091B10083818850883008F0FF
:10022000B8CF1092AF008FEF9FEFDC018093AB004F
:100230009093AC00A093AD00B093AE0061E070E08D
:1002400080E090E00895E091B000F091B100E20FFD
:10025000F31F20812850273078F6440F551F661F62
:10026000771FBBCF80E28093AF004093AB005093E9
:10027000AC006093AD007093AE0061E070E080E090
:1002800090E0089584E690E09093B1008093B000F0
:100290008091AA0090E09093B3008093B200809187
:1002A0006100853019F080E090E00895F89465DFF2
:1002B000672B682B692B49F4789482E08093610066
:1002C0001092AA0080E090E00895789481E090E098
:1002D00008951F920F920FB60F9211240F900FBE28
:1002E0000F901F901895F89488E181BD81B58660C4
:1002F00081BD789491E080E8E6E4F0E0808390832B
:100300008FE087BB8BE088BB479A379844B155B1E3
:1003100020B581E090E002C0880F991F4A95E2F76E
:100320008E60822B80BD85B7877E806185BFC8E1E6
:10033000D8E11CE8C29A80B58B7F80BD7FDE2FEBB1
:1003400084ED91E0215080409040E1F700C0000032
:1003500099DF892B09F485C0C090AB00D090AC0028
:10036000E090AD00F090AE00CF2CDD24EE24FF2411
:100370004091AB005091AC006091AD007091AE0027
:10038000AB01662777278091AB009091AC00A091DC
:10039000AD00B091AE00892F9A2FAB2FBB27C0FCC8
:1003A0007EC0C6942C2D2695C0FC212720FD8DC033
:1003B000269520FD77C0269520FD78C0269520FD46
:1003C00079C0269520FD7AC0269520FD7BC0269514
:1003D0004227242F269540FD212720FDA5C02695E4
:1003E00020FD9FC0269520FD99C0269520FD93C035
:1003F000269520FD8DC0269520FD87C0269520FDE1
:1004000081C02695822780FD7AC0869580FD74C0C4
:10041000869580FD6EC0869580FD68C0869580FDBE
:1004200062C0869580FD5CC0869580FD56C086952D
:1004300080FD4EC086958093B4004091AB005091F2
:10044000AC006091AD007091AE0090E0A0E0B0E033
:1004500055276627772784179507A607B70709F456
:1004600066C0FFDD80B5846080BDC29885B78062BC
:1004700085BF2FE130E0F894C1BD81B5806481BDB6
:100480007894889521503109B1F7F894D1BD81B5A0
:10049000866081BD789485B78F7D85BF4BCFC6942C
:1004A000C12680CF2695212720FF88CF269521279A
:1004B00020FF87CF2695212720FF86CF269521274D
:1004C00020FF85CF2695212783CF2695212771CF21
:1004D000869581278093B400B0CF86958127A8CFD9
:1004E00086958127A2CF869581279CCF86958127E7
:1004F00096CF8695812790CF869581278ACF86953E
:10050000812784CF269521277DCF2695212777CF58
:100510002695212771CF269521276BCF2695212758
:1005200065CF269521275FCF2695212759CF99DDC5
:1005300080B5846080BDC2989AE0C09885B780621B
:1005400085BFF894C1BD81B5806481BD78948895DC
:10055000F894C1BD81B5806481BD78948895F89484
:10056000C1BD81B5866081BD789485B78F7D85BF1B
:10057000C09AC19885B7806285BFF894C1BD81B526
:10058000806481BD78948895F894C1BD81B58064FC
:1005900081BD78948895F894C1BD81B5866081BD90
:1005A000789485B78F7D85BFC19AC39885B78062DF
:1005B00085BFF894C1BD81B5806481BD789488956C
:1005C000F894C1BD81B5806481BD78948895F89414
:1005D000C1BD81B5866081BD789485B78F7D85BFAB
:1005E000C39AA895915009F0A8CF88B38B6088BBB7
:0605F000A1CEF894FFCF3C
:00000001FF
