:100000000EC01BC063C019C018C017C016C015C0F1
:1000100014C013C012C011C06AC00FC00EC011249A
:100020001FBECFEDCDBF20E0A0E6B0E001C01D9225
:10003000A136B207E1F76CD01DC1E2CF2EE188E115
:10004000C09895B7906295BFF89481BD91B59064C2
:1000500091BD78948895F89481BD91B5906491BDD7
:100060007894889595B79F7D95BFC09AC19895B7AC
:10007000906295BFF89481BD91B5906491BD7894DC
:100080008895F89481BD91B5906491BD78948895D8
:1000900095B79F7D95BFC19AC39895B7906295BF5C
:1000A000F89481BD91B5906491BD78948895F89449
:1000B00081BD91B5906491BD7894889595B79F7DE9
:1000C00095BFC39A215009F0BBCF08951F920F929C
:1000D0000FB60F9211248F93809160008F5F8093F1
:1000E00060008F910F900FBE0F901F9018951F9278
:1000F0000F920FB60F9211248F93F89488E181BD6F
:1001000011BC78948F910F900FBE0F901F9018958F
:1001100091E080E8E6E4F0E0808390838FE087BBA5
:100120008BE088BB479A3798A19AA09A40B524B132
:1001300035B14E6081E090E0022E01C0880F0A9434
:10014000EAF7482B40BD85B7877E806185BF04B63E
:1001500001FE04C084B78D7F84BF70DFD0E1C8E1A9
:1001600010926000C29A8BB780628BBFD5BBF894A7
:10017000C1BD81B5806481BD789401B406FCFDCF1A
:1001800080916000853008F066C08BB78F7D8BBF93
:10019000C29880916000893008F05BC085B78062AA
:1001A00085BFF894C1BD81B5806481BD7894889580
:1001B000F894C1BD81B5806481BD78948895F89428
:1001C000C1BD81B5806481BD78948895F894C1BD26
:1001D00081B5806481BD78948895F894C1BD81B55E
:1001E000806481BD78948895F894C1BD81B58064A0
:1001F00081BD78948895F894C1BD81B5806481BD36
:1002000078948895F894C1BD81B5806481BD789457
:100210008895F894C1BD81B5806481BD7894889536
:10022000F894C1BD81B5806481BD78948895F894B7
:10023000C1BD81B5806481BD78948895F894C1BDB5
:1002400081B5806481BD7894889585B78F7D85BFA1
:1002500087CFF4DE85CF84E090E0F894C1BD21B56E
:10026000206421BD789401B406FCFDCF019700976E
:08027000A1F78BCFF894FFCF3A
:00000001FF
