:100000000EC01DC065C01BC01AC019C018C017C0E3
:1000100016C015C014C013C06CC011C010C011248C
:100020001FBECFE5D1E0DEBFCDBF20E0A0E6B0E04F
:1000300001C01D92A136B207E1F76CD01DC1E0CF1F
:100040002EE188E1C09895B7906295BFF89481BD84
:1000500091B5906491BD78948895F89481BD91B5DF
:10006000906491BD7894889595B79F7D95BFC09A0F
:10007000C19895B7906295BFF89481BD91B5906491
:1000800091BD78948895F89481BD91B5906491BDA7
:100090007894889595B79F7D95BFC19AC39895B779
:1000A000906295BFF89481BD91B5906491BD7894AC
:1000B0008895F89481BD91B5906491BD78948895A8
:1000C00095B79F7D95BFC39A215009F0BBCF089586
:1000D0001F920F920FB60F9211248F9380916000A0
:1000E0008F5F809360008F910F900FBE0F901F90D5
:1000F00018951F920F920FB60F9211248F93F894B8
:1001000088E181BD11BC78948F910F900FBE0F9044
:100110001F90189591E080E8E6E4F0E080839083FA
:100120008FE087BB8BE088BB479A3798A19AA09A4B
:1001300044B155B120B581E090E002C0880F991F0D
:100140004A95E2F78E60822B80BD85B7877E8061FD
:1001500085BF04B601FE04C084B78D7F84BF70DF05
:10016000D0E1C8E110926000C29A8BB780628BBF69
:10017000D5BBF894C1BD81B5806481BD789401B4CC
:1001800006FCFDCF80916000853008F066C08BB71B
:100190008F7D8BBFC29880916000893008F05BC072
:1001A00085B7806285BFF894C1BD81B5806481BD8B
:1001B00078948895F894C1BD81B5806481BD7894A8
:1001C0008895F894C1BD81B5806481BD7894889587
:1001D000F894C1BD81B5806481BD78948895F89408
:1001E000C1BD81B5806481BD78948895F894C1BD06
:1001F00081B5806481BD78948895F894C1BD81B53E
:10020000806481BD78948895F894C1BD81B580647F
:1002100081BD78948895F894C1BD81B5806481BD15
:1002200078948895F894C1BD81B5806481BD789437
:100230008895F894C1BD81B5806481BD7894889516
:10024000F894C1BD81B5806481BD7894889585B7E7
:100250008F7D85BF87CFF4DE85CF24E030E0F89432
:10026000C1BD81B5806481BD789401B406FCFDCF29
:0C02700021503109A1F78BCFF894FFCF8B
:00000001FF
